{
	"data": {
		"bytecode": {
			"linkReferences": {},
			"object": "608060405234801562000010575f80fd5b506040518060400160405280600481526020017f416c6578000000000000000000000000000000000000000000000000000000008152505f9081620000569190620002dc565b50602c60015f6101000a81548160ff021916908360ff160217905550620003c0565b5f81519050919050565b7f4e487b71000000000000000000000000000000000000000000000000000000005f52604160045260245ffd5b7f4e487b71000000000000000000000000000000000000000000000000000000005f52602260045260245ffd5b5f6002820490506001821680620000f457607f821691505b6020821081036200010a5762000109620000af565b5b50919050565b5f819050815f5260205f209050919050565b5f6020601f8301049050919050565b5f82821b905092915050565b5f600883026200016e7fffffffffffffffffffffffffffffffffffffffffffffffffffffffffffffffff8262000131565b6200017a868362000131565b95508019841693508086168417925050509392505050565b5f819050919050565b5f819050919050565b5f620001c4620001be620001b88462000192565b6200019b565b62000192565b9050919050565b5f819050919050565b620001df83620001a4565b620001f7620001ee82620001cb565b8484546200013d565b825550505050565b5f90565b6200020d620001ff565b6200021a818484620001d4565b505050565b5b818110156200024157620002355f8262000203565b60018101905062000220565b5050565b601f82111562000290576200025a8162000110565b620002658462000122565b8101602085101562000275578190505b6200028d620002848562000122565b8301826200021f565b50505b505050565b5f82821c905092915050565b5f620002b25f198460080262000295565b1980831691505092915050565b5f620002cc8383620002a1565b9150826002028217905092915050565b620002e78262000078565b67ffffffffffffffff81111562000303576200030262000082565b5b6200030f8254620000dc565b6200031c82828562000245565b5f60209050601f83116001811462000352575f84156200033d578287015190505b620003498582620002bf565b865550620003b8565b601f198416620003628662000110565b5f5b828110156200038b5784890151825560018201915060208501945060208101905062000364565b86831015620003ab5784890151620003a7601f891682620002a1565b8355505b6001600288020188555050505b505050505050565b61075080620003ce5f395ff3fe608060405234801561000f575f80fd5b506004361061004a575f3560e01c806306fdde031461004e5780635b0c8d701461006c578063967e6e6514610088578063c47f0027146100a6575b5f80fd5b6100566100c2565b604051610063919061021b565b60405180910390f35b61008660048036038101906100819190610282565b61014d565b005b61009061016a565b60405161009d91906102bc565b60405180910390f35b6100c060048036038101906100bb9190610401565b61017f565b005b5f80546100ce90610475565b80601f01602080910402602001604051908101604052809291908181526020018280546100fa90610475565b80156101455780601f1061011c57610100808354040283529160200191610145565b820191905f5260205f20905b81548152906001019060200180831161012857829003601f168201915b505050505081565b8060015f6101000a81548160ff021916908360ff16021790555050565b5f60015f9054906101000a900460ff16905090565b805f908161018d919061064b565b5050565b5f81519050919050565b5f82825260208201905092915050565b5f5b838110156101c85780820151818401526020810190506101ad565b5f8484015250505050565b5f601f19601f8301169050919050565b5f6101ed82610191565b6101f7818561019b565b93506102078185602086016101ab565b610210816101d3565b840191505092915050565b5f6020820190508181035f83015261023381846101e3565b905092915050565b5f604051905090565b5f80fd5b5f80fd5b5f60ff82169050919050565b6102618161024c565b811461026b575f80fd5b50565b5f8135905061027c81610258565b92915050565b5f6020828403121561029757610296610244565b5b5f6102a48482850161026e565b91505092915050565b6102b68161024c565b82525050565b5f6020820190506102cf5f8301846102ad565b92915050565b5f80fd5b5f80fd5b7f4e487b71000000000000000000000000000000000000000000000000000000005f52604160045260245ffd5b610313826101d3565b810181811067ffffffffffffffff82111715610332576103316102dd565b5b80604052505050565b5f61034461023b565b9050610350828261030a565b919050565b5f67ffffffffffffffff82111561036f5761036e6102dd565b5b610378826101d3565b9050602081019050919050565b828183375f83830152505050565b5f6103a56103a084610355565b61033b565b9050828152602081018484840111156103c1576103c06102d9565b5b6103cc848285610385565b509392505050565b5f82601f8301126103e8576103e76102d5565b5b81356103f8848260208601610393565b91505092915050565b5f6020828403121561041657610415610244565b5b5f82013567ffffffffffffffff81111561043357610432610248565b5b61043f848285016103d4565b91505092915050565b7f4e487b71000000000000000000000000000000000000000000000000000000005f52602260045260245ffd5b5f600282049050600182168061048c57607f821691505b60208210810361049f5761049e610448565b5b50919050565b5f819050815f5260205f209050919050565b5f6020601f8301049050919050565b5f82821b905092915050565b5f600883026105017fffffffffffffffffffffffffffffffffffffffffffffffffffffffffffffffff826104c6565b61050b86836104c6565b95508019841693508086168417925050509392505050565b5f819050919050565b5f819050919050565b5f61054f61054a61054584610523565b61052c565b610523565b9050919050565b5f819050919050565b61056883610535565b61057c61057482610556565b8484546104d2565b825550505050565b5f90565b610590610584565b61059b81848461055f565b505050565b5b818110156105be576105b35f82610588565b6001810190506105a1565b5050565b601f821115610603576105d4816104a5565b6105dd846104b7565b810160208510156105ec578190505b6106006105f8856104b7565b8301826105a0565b50505b505050565b5f82821c905092915050565b5f6106235f1984600802610608565b1980831691505092915050565b5f61063b8383610614565b9150826002028217905092915050565b61065482610191565b67ffffffffffffffff81111561066d5761066c6102dd565b5b6106778254610475565b6106828282856105c2565b5f60209050601f8311600181146106b3575f84156106a1578287015190505b6106ab8582610630565b865550610712565b601f1984166106c1866104a5565b5f5b828110156106e8578489015182556001820191506020850194506020810190506106c3565b868310156107055784890151610701601f891682610614565b8355505b6001600288020188555050505b50505050505056fea2646970667358221220a27339088849832faf6177be8f4a10a0de0fc46842ce10f7280e37c14a0dcdd564736f6c63430008150033",
			"opcodes": "PUSH1 0x80 PUSH1 0x40 MSTORE CALLVALUE DUP1 ISZERO PUSH3 0x10 JUMPI PUSH0 DUP1 REVERT JUMPDEST POP PUSH1 0x40 MLOAD DUP1 PUSH1 0x40 ADD PUSH1 0x40 MSTORE DUP1 PUSH1 0x4 DUP2 MSTORE PUSH1 0x20 ADD PUSH32 0x416C657800000000000000000000000000000000000000000000000000000000 DUP2 MSTORE POP PUSH0 SWAP1 DUP2 PUSH3 0x56 SWAP2 SWAP1 PUSH3 0x2DC JUMP JUMPDEST POP PUSH1 0x2C PUSH1 0x1 PUSH0 PUSH2 0x100 EXP DUP2 SLOAD DUP2 PUSH1 0xFF MUL NOT AND SWAP1 DUP4 PUSH1 0xFF AND MUL OR SWAP1 SSTORE POP PUSH3 0x3C0 JUMP JUMPDEST PUSH0 DUP2 MLOAD SWAP1 POP SWAP2 SWAP1 POP JUMP JUMPDEST PUSH32 0x4E487B7100000000000000000000000000000000000000000000000000000000 PUSH0 MSTORE PUSH1 0x41 PUSH1 0x4 MSTORE PUSH1 0x24 PUSH0 REVERT JUMPDEST PUSH32 0x4E487B7100000000000000000000000000000000000000000000000000000000 PUSH0 MSTORE PUSH1 0x22 PUSH1 0x4 MSTORE PUSH1 0x24 PUSH0 REVERT JUMPDEST PUSH0 PUSH1 0x2 DUP3 DIV SWAP1 POP PUSH1 0x1 DUP3 AND DUP1 PUSH3 0xF4 JUMPI PUSH1 0x7F DUP3 AND SWAP2 POP JUMPDEST PUSH1 0x20 DUP3 LT DUP2 SUB PUSH3 0x10A JUMPI PUSH3 0x109 PUSH3 0xAF JUMP JUMPDEST JUMPDEST POP SWAP2 SWAP1 POP JUMP JUMPDEST PUSH0 DUP2 SWAP1 POP DUP2 PUSH0 MSTORE PUSH1 0x20 PUSH0 KECCAK256 SWAP1 POP SWAP2 SWAP1 POP JUMP JUMPDEST PUSH0 PUSH1 0x20 PUSH1 0x1F DUP4 ADD DIV SWAP1 POP SWAP2 SWAP1 POP JUMP JUMPDEST PUSH0 DUP3 DUP3 SHL SWAP1 POP SWAP3 SWAP2 POP POP JUMP JUMPDEST PUSH0 PUSH1 0x8 DUP4 MUL PUSH3 0x16E PUSH32 0xFFFFFFFFFFFFFFFFFFFFFFFFFFFFFFFFFFFFFFFFFFFFFFFFFFFFFFFFFFFFFFFF DUP3 PUSH3 0x131 JUMP JUMPDEST PUSH3 0x17A DUP7 DUP4 PUSH3 0x131 JUMP JUMPDEST SWAP6 POP DUP1 NOT DUP5 AND SWAP4 POP DUP1 DUP7 AND DUP5 OR SWAP3 POP POP POP SWAP4 SWAP3 POP POP POP JUMP JUMPDEST PUSH0 DUP2 SWAP1 POP SWAP2 SWAP1 POP JUMP JUMPDEST PUSH0 DUP2 SWAP1 POP SWAP2 SWAP1 POP JUMP JUMPDEST PUSH0 PUSH3 0x1C4 PUSH3 0x1BE PUSH3 0x1B8 DUP5 PUSH3 0x192 JUMP JUMPDEST PUSH3 0x19B JUMP JUMPDEST PUSH3 0x192 JUMP JUMPDEST SWAP1 POP SWAP2 SWAP1 POP JUMP JUMPDEST PUSH0 DUP2 SWAP1 POP SWAP2 SWAP1 POP JUMP JUMPDEST PUSH3 0x1DF DUP4 PUSH3 0x1A4 JUMP JUMPDEST PUSH3 0x1F7 PUSH3 0x1EE DUP3 PUSH3 0x1CB JUMP JUMPDEST DUP5 DUP5 SLOAD PUSH3 0x13D JUMP JUMPDEST DUP3 SSTORE POP POP POP POP JUMP JUMPDEST PUSH0 SWAP1 JUMP JUMPDEST PUSH3 0x20D PUSH3 0x1FF JUMP JUMPDEST PUSH3 0x21A DUP2 DUP5 DUP5 PUSH3 0x1D4 JUMP JUMPDEST POP POP POP JUMP JUMPDEST JUMPDEST DUP2 DUP2 LT ISZERO PUSH3 0x241 JUMPI PUSH3 0x235 PUSH0 DUP3 PUSH3 0x203 JUMP JUMPDEST PUSH1 0x1 DUP2 ADD SWAP1 POP PUSH3 0x220 JUMP JUMPDEST POP POP JUMP JUMPDEST PUSH1 0x1F DUP3 GT ISZERO PUSH3 0x290 JUMPI PUSH3 0x25A DUP2 PUSH3 0x110 JUMP JUMPDEST PUSH3 0x265 DUP5 PUSH3 0x122 JUMP JUMPDEST DUP2 ADD PUSH1 0x20 DUP6 LT ISZERO PUSH3 0x275 JUMPI DUP2 SWAP1 POP JUMPDEST PUSH3 0x28D PUSH3 0x284 DUP6 PUSH3 0x122 JUMP JUMPDEST DUP4 ADD DUP3 PUSH3 0x21F JUMP JUMPDEST POP POP JUMPDEST POP POP POP JUMP JUMPDEST PUSH0 DUP3 DUP3 SHR SWAP1 POP SWAP3 SWAP2 POP POP JUMP JUMPDEST PUSH0 PUSH3 0x2B2 PUSH0 NOT DUP5 PUSH1 0x8 MUL PUSH3 0x295 JUMP JUMPDEST NOT DUP1 DUP4 AND SWAP2 POP POP SWAP3 SWAP2 POP POP JUMP JUMPDEST PUSH0 PUSH3 0x2CC DUP4 DUP4 PUSH3 0x2A1 JUMP JUMPDEST SWAP2 POP DUP3 PUSH1 0x2 MUL DUP3 OR SWAP1 POP SWAP3 SWAP2 POP POP JUMP JUMPDEST PUSH3 0x2E7 DUP3 PUSH3 0x78 JUMP JUMPDEST PUSH8 0xFFFFFFFFFFFFFFFF DUP2 GT ISZERO PUSH3 0x303 JUMPI PUSH3 0x302 PUSH3 0x82 JUMP JUMPDEST JUMPDEST PUSH3 0x30F DUP3 SLOAD PUSH3 0xDC JUMP JUMPDEST PUSH3 0x31C DUP3 DUP3 DUP6 PUSH3 0x245 JUMP JUMPDEST PUSH0 PUSH1 0x20 SWAP1 POP PUSH1 0x1F DUP4 GT PUSH1 0x1 DUP2 EQ PUSH3 0x352 JUMPI PUSH0 DUP5 ISZERO PUSH3 0x33D JUMPI DUP3 DUP8 ADD MLOAD SWAP1 POP JUMPDEST PUSH3 0x349 DUP6 DUP3 PUSH3 0x2BF JUMP JUMPDEST DUP7 SSTORE POP PUSH3 0x3B8 JUMP JUMPDEST PUSH1 0x1F NOT DUP5 AND PUSH3 0x362 DUP7 PUSH3 0x110 JUMP JUMPDEST PUSH0 JUMPDEST DUP3 DUP2 LT ISZERO PUSH3 0x38B JUMPI DUP5 DUP10 ADD MLOAD DUP3 SSTORE PUSH1 0x1 DUP3 ADD SWAP2 POP PUSH1 0x20 DUP6 ADD SWAP5 POP PUSH1 0x20 DUP2 ADD SWAP1 POP PUSH3 0x364 JUMP JUMPDEST DUP7 DUP4 LT ISZERO PUSH3 0x3AB JUMPI DUP5 DUP10 ADD MLOAD PUSH3 0x3A7 PUSH1 0x1F DUP10 AND DUP3 PUSH3 0x2A1 JUMP JUMPDEST DUP4 SSTORE POP JUMPDEST PUSH1 0x1 PUSH1 0x2 DUP9 MUL ADD DUP9 SSTORE POP POP POP JUMPDEST POP POP POP POP POP POP JUMP JUMPDEST PUSH2 0x750 DUP1 PUSH3 0x3CE PUSH0 CODECOPY PUSH0 RETURN INVALID PUSH1 0x80 PUSH1 0x40 MSTORE CALLVALUE DUP1 ISZERO PUSH2 0xF JUMPI PUSH0 DUP1 REVERT JUMPDEST POP PUSH1 0x4 CALLDATASIZE LT PUSH2 0x4A JUMPI PUSH0 CALLDATALOAD PUSH1 0xE0 SHR DUP1 PUSH4 0x6FDDE03 EQ PUSH2 0x4E JUMPI DUP1 PUSH4 0x5B0C8D70 EQ PUSH2 0x6C JUMPI DUP1 PUSH4 0x967E6E65 EQ PUSH2 0x88 JUMPI DUP1 PUSH4 0xC47F0027 EQ PUSH2 0xA6 JUMPI JUMPDEST PUSH0 DUP1 REVERT JUMPDEST PUSH2 0x56 PUSH2 0xC2 JUMP JUMPDEST PUSH1 0x40 MLOAD PUSH2 0x63 SWAP2 SWAP1 PUSH2 0x21B JUMP JUMPDEST PUSH1 0x40 MLOAD DUP1 SWAP2 SUB SWAP1 RETURN JUMPDEST PUSH2 0x86 PUSH1 0x4 DUP1 CALLDATASIZE SUB DUP2 ADD SWAP1 PUSH2 0x81 SWAP2 SWAP1 PUSH2 0x282 JUMP JUMPDEST PUSH2 0x14D JUMP JUMPDEST STOP JUMPDEST PUSH2 0x90 PUSH2 0x16A JUMP JUMPDEST PUSH1 0x40 MLOAD PUSH2 0x9D SWAP2 SWAP1 PUSH2 0x2BC JUMP JUMPDEST PUSH1 0x40 MLOAD DUP1 SWAP2 SUB SWAP1 RETURN JUMPDEST PUSH2 0xC0 PUSH1 0x4 DUP1 CALLDATASIZE SUB DUP2 ADD SWAP1 PUSH2 0xBB SWAP2 SWAP1 PUSH2 0x401 JUMP JUMPDEST PUSH2 0x17F JUMP JUMPDEST STOP JUMPDEST PUSH0 DUP1 SLOAD PUSH2 0xCE SWAP1 PUSH2 0x475 JUMP JUMPDEST DUP1 PUSH1 0x1F ADD PUSH1 0x20 DUP1 SWAP2 DIV MUL PUSH1 0x20 ADD PUSH1 0x40 MLOAD SWAP1 DUP2 ADD PUSH1 0x40 MSTORE DUP1 SWAP3 SWAP2 SWAP1 DUP2 DUP2 MSTORE PUSH1 0x20 ADD DUP3 DUP1 SLOAD PUSH2 0xFA SWAP1 PUSH2 0x475 JUMP JUMPDEST DUP1 ISZERO PUSH2 0x145 JUMPI DUP1 PUSH1 0x1F LT PUSH2 0x11C JUMPI PUSH2 0x100 DUP1 DUP4 SLOAD DIV MUL DUP4 MSTORE SWAP2 PUSH1 0x20 ADD SWAP2 PUSH2 0x145 JUMP JUMPDEST DUP3 ADD SWAP2 SWAP1 PUSH0 MSTORE PUSH1 0x20 PUSH0 KECCAK256 SWAP1 JUMPDEST DUP2 SLOAD DUP2 MSTORE SWAP1 PUSH1 0x1 ADD SWAP1 PUSH1 0x20 ADD DUP1 DUP4 GT PUSH2 0x128 JUMPI DUP3 SWAP1 SUB PUSH1 0x1F AND DUP3 ADD SWAP2 JUMPDEST POP POP POP POP POP DUP2 JUMP JUMPDEST DUP1 PUSH1 0x1 PUSH0 PUSH2 0x100 EXP DUP2 SLOAD DUP2 PUSH1 0xFF MUL NOT AND SWAP1 DUP4 PUSH1 0xFF AND MUL OR SWAP1 SSTORE POP POP JUMP JUMPDEST PUSH0 PUSH1 0x1 PUSH0 SWAP1 SLOAD SWAP1 PUSH2 0x100 EXP SWAP1 DIV PUSH1 0xFF AND SWAP1 POP SWAP1 JUMP JUMPDEST DUP1 PUSH0 SWAP1 DUP2 PUSH2 0x18D SWAP2 SWAP1 PUSH2 0x64B JUMP JUMPDEST POP POP JUMP JUMPDEST PUSH0 DUP2 MLOAD SWAP1 POP SWAP2 SWAP1 POP JUMP JUMPDEST PUSH0 DUP3 DUP3 MSTORE PUSH1 0x20 DUP3 ADD SWAP1 POP SWAP3 SWAP2 POP POP JUMP JUMPDEST PUSH0 JUMPDEST DUP4 DUP2 LT ISZERO PUSH2 0x1C8 JUMPI DUP1 DUP3 ADD MLOAD DUP2 DUP5 ADD MSTORE PUSH1 0x20 DUP2 ADD SWAP1 POP PUSH2 0x1AD JUMP JUMPDEST PUSH0 DUP5 DUP5 ADD MSTORE POP POP POP POP JUMP JUMPDEST PUSH0 PUSH1 0x1F NOT PUSH1 0x1F DUP4 ADD AND SWAP1 POP SWAP2 SWAP1 POP JUMP JUMPDEST PUSH0 PUSH2 0x1ED DUP3 PUSH2 0x191 JUMP JUMPDEST PUSH2 0x1F7 DUP2 DUP6 PUSH2 0x19B JUMP JUMPDEST SWAP4 POP PUSH2 0x207 DUP2 DUP6 PUSH1 0x20 DUP7 ADD PUSH2 0x1AB JUMP JUMPDEST PUSH2 0x210 DUP2 PUSH2 0x1D3 JUMP JUMPDEST DUP5 ADD SWAP2 POP POP SWAP3 SWAP2 POP POP JUMP JUMPDEST PUSH0 PUSH1 0x20 DUP3 ADD SWAP1 POP DUP2 DUP2 SUB PUSH0 DUP4 ADD MSTORE PUSH2 0x233 DUP2 DUP5 PUSH2 0x1E3 JUMP JUMPDEST SWAP1 POP SWAP3 SWAP2 POP POP JUMP JUMPDEST PUSH0 PUSH1 0x40 MLOAD SWAP1 POP SWAP1 JUMP JUMPDEST PUSH0 DUP1 REVERT JUMPDEST PUSH0 DUP1 REVERT JUMPDEST PUSH0 PUSH1 0xFF DUP3 AND SWAP1 POP SWAP2 SWAP1 POP JUMP JUMPDEST PUSH2 0x261 DUP2 PUSH2 0x24C JUMP JUMPDEST DUP2 EQ PUSH2 0x26B JUMPI PUSH0 DUP1 REVERT JUMPDEST POP JUMP JUMPDEST PUSH0 DUP2 CALLDATALOAD SWAP1 POP PUSH2 0x27C DUP2 PUSH2 0x258 JUMP JUMPDEST SWAP3 SWAP2 POP POP JUMP JUMPDEST PUSH0 PUSH1 0x20 DUP3 DUP5 SUB SLT ISZERO PUSH2 0x297 JUMPI PUSH2 0x296 PUSH2 0x244 JUMP JUMPDEST JUMPDEST PUSH0 PUSH2 0x2A4 DUP5 DUP3 DUP6 ADD PUSH2 0x26E JUMP JUMPDEST SWAP2 POP POP SWAP3 SWAP2 POP POP JUMP JUMPDEST PUSH2 0x2B6 DUP2 PUSH2 0x24C JUMP JUMPDEST DUP3 MSTORE POP POP JUMP JUMPDEST PUSH0 PUSH1 0x20 DUP3 ADD SWAP1 POP PUSH2 0x2CF PUSH0 DUP4 ADD DUP5 PUSH2 0x2AD JUMP JUMPDEST SWAP3 SWAP2 POP POP JUMP JUMPDEST PUSH0 DUP1 REVERT JUMPDEST PUSH0 DUP1 REVERT JUMPDEST PUSH32 0x4E487B7100000000000000000000000000000000000000000000000000000000 PUSH0 MSTORE PUSH1 0x41 PUSH1 0x4 MSTORE PUSH1 0x24 PUSH0 REVERT JUMPDEST PUSH2 0x313 DUP3 PUSH2 0x1D3 JUMP JUMPDEST DUP2 ADD DUP2 DUP2 LT PUSH8 0xFFFFFFFFFFFFFFFF DUP3 GT OR ISZERO PUSH2 0x332 JUMPI PUSH2 0x331 PUSH2 0x2DD JUMP JUMPDEST JUMPDEST DUP1 PUSH1 0x40 MSTORE POP POP POP JUMP JUMPDEST PUSH0 PUSH2 0x344 PUSH2 0x23B JUMP JUMPDEST SWAP1 POP PUSH2 0x350 DUP3 DUP3 PUSH2 0x30A JUMP JUMPDEST SWAP2 SWAP1 POP JUMP JUMPDEST PUSH0 PUSH8 0xFFFFFFFFFFFFFFFF DUP3 GT ISZERO PUSH2 0x36F JUMPI PUSH2 0x36E PUSH2 0x2DD JUMP JUMPDEST JUMPDEST PUSH2 0x378 DUP3 PUSH2 0x1D3 JUMP JUMPDEST SWAP1 POP PUSH1 0x20 DUP2 ADD SWAP1 POP SWAP2 SWAP1 POP JUMP JUMPDEST DUP3 DUP2 DUP4 CALLDATACOPY PUSH0 DUP4 DUP4 ADD MSTORE POP POP POP JUMP JUMPDEST PUSH0 PUSH2 0x3A5 PUSH2 0x3A0 DUP5 PUSH2 0x355 JUMP JUMPDEST PUSH2 0x33B JUMP JUMPDEST SWAP1 POP DUP3 DUP2 MSTORE PUSH1 0x20 DUP2 ADD DUP5 DUP5 DUP5 ADD GT ISZERO PUSH2 0x3C1 JUMPI PUSH2 0x3C0 PUSH2 0x2D9 JUMP JUMPDEST JUMPDEST PUSH2 0x3CC DUP5 DUP3 DUP6 PUSH2 0x385 JUMP JUMPDEST POP SWAP4 SWAP3 POP POP POP JUMP JUMPDEST PUSH0 DUP3 PUSH1 0x1F DUP4 ADD SLT PUSH2 0x3E8 JUMPI PUSH2 0x3E7 PUSH2 0x2D5 JUMP JUMPDEST JUMPDEST DUP2 CALLDATALOAD PUSH2 0x3F8 DUP5 DUP3 PUSH1 0x20 DUP7 ADD PUSH2 0x393 JUMP JUMPDEST SWAP2 POP POP SWAP3 SWAP2 POP POP JUMP JUMPDEST PUSH0 PUSH1 0x20 DUP3 DUP5 SUB SLT ISZERO PUSH2 0x416 JUMPI PUSH2 0x415 PUSH2 0x244 JUMP JUMPDEST JUMPDEST PUSH0 DUP3 ADD CALLDATALOAD PUSH8 0xFFFFFFFFFFFFFFFF DUP2 GT ISZERO PUSH2 0x433 JUMPI PUSH2 0x432 PUSH2 0x248 JUMP JUMPDEST JUMPDEST PUSH2 0x43F DUP5 DUP3 DUP6 ADD PUSH2 0x3D4 JUMP JUMPDEST SWAP2 POP POP SWAP3 SWAP2 POP POP JUMP JUMPDEST PUSH32 0x4E487B7100000000000000000000000000000000000000000000000000000000 PUSH0 MSTORE PUSH1 0x22 PUSH1 0x4 MSTORE PUSH1 0x24 PUSH0 REVERT JUMPDEST PUSH0 PUSH1 0x2 DUP3 DIV SWAP1 POP PUSH1 0x1 DUP3 AND DUP1 PUSH2 0x48C JUMPI PUSH1 0x7F DUP3 AND SWAP2 POP JUMPDEST PUSH1 0x20 DUP3 LT DUP2 SUB PUSH2 0x49F JUMPI PUSH2 0x49E PUSH2 0x448 JUMP JUMPDEST JUMPDEST POP SWAP2 SWAP1 POP JUMP JUMPDEST PUSH0 DUP2 SWAP1 POP DUP2 PUSH0 MSTORE PUSH1 0x20 PUSH0 KECCAK256 SWAP1 POP SWAP2 SWAP1 POP JUMP JUMPDEST PUSH0 PUSH1 0x20 PUSH1 0x1F DUP4 ADD DIV SWAP1 POP SWAP2 SWAP1 POP JUMP JUMPDEST PUSH0 DUP3 DUP3 SHL SWAP1 POP SWAP3 SWAP2 POP POP JUMP JUMPDEST PUSH0 PUSH1 0x8 DUP4 MUL PUSH2 0x501 PUSH32 0xFFFFFFFFFFFFFFFFFFFFFFFFFFFFFFFFFFFFFFFFFFFFFFFFFFFFFFFFFFFFFFFF DUP3 PUSH2 0x4C6 JUMP JUMPDEST PUSH2 0x50B DUP7 DUP4 PUSH2 0x4C6 JUMP JUMPDEST SWAP6 POP DUP1 NOT DUP5 AND SWAP4 POP DUP1 DUP7 AND DUP5 OR SWAP3 POP POP POP SWAP4 SWAP3 POP POP POP JUMP JUMPDEST PUSH0 DUP2 SWAP1 POP SWAP2 SWAP1 POP JUMP JUMPDEST PUSH0 DUP2 SWAP1 POP SWAP2 SWAP1 POP JUMP JUMPDEST PUSH0 PUSH2 0x54F PUSH2 0x54A PUSH2 0x545 DUP5 PUSH2 0x523 JUMP JUMPDEST PUSH2 0x52C JUMP JUMPDEST PUSH2 0x523 JUMP JUMPDEST SWAP1 POP SWAP2 SWAP1 POP JUMP JUMPDEST PUSH0 DUP2 SWAP1 POP SWAP2 SWAP1 POP JUMP JUMPDEST PUSH2 0x568 DUP4 PUSH2 0x535 JUMP JUMPDEST PUSH2 0x57C PUSH2 0x574 DUP3 PUSH2 0x556 JUMP JUMPDEST DUP5 DUP5 SLOAD PUSH2 0x4D2 JUMP JUMPDEST DUP3 SSTORE POP POP POP POP JUMP JUMPDEST PUSH0 SWAP1 JUMP JUMPDEST PUSH2 0x590 PUSH2 0x584 JUMP JUMPDEST PUSH2 0x59B DUP2 DUP5 DUP5 PUSH2 0x55F JUMP JUMPDEST POP POP POP JUMP JUMPDEST JUMPDEST DUP2 DUP2 LT ISZERO PUSH2 0x5BE JUMPI PUSH2 0x5B3 PUSH0 DUP3 PUSH2 0x588 JUMP JUMPDEST PUSH1 0x1 DUP2 ADD SWAP1 POP PUSH2 0x5A1 JUMP JUMPDEST POP POP JUMP JUMPDEST PUSH1 0x1F DUP3 GT ISZERO PUSH2 0x603 JUMPI PUSH2 0x5D4 DUP2 PUSH2 0x4A5 JUMP JUMPDEST PUSH2 0x5DD DUP5 PUSH2 0x4B7 JUMP JUMPDEST DUP2 ADD PUSH1 0x20 DUP6 LT ISZERO PUSH2 0x5EC JUMPI DUP2 SWAP1 POP JUMPDEST PUSH2 0x600 PUSH2 0x5F8 DUP6 PUSH2 0x4B7 JUMP JUMPDEST DUP4 ADD DUP3 PUSH2 0x5A0 JUMP JUMPDEST POP POP JUMPDEST POP POP POP JUMP JUMPDEST PUSH0 DUP3 DUP3 SHR SWAP1 POP SWAP3 SWAP2 POP POP JUMP JUMPDEST PUSH0 PUSH2 0x623 PUSH0 NOT DUP5 PUSH1 0x8 MUL PUSH2 0x608 JUMP JUMPDEST NOT DUP1 DUP4 AND SWAP2 POP POP SWAP3 SWAP2 POP POP JUMP JUMPDEST PUSH0 PUSH2 0x63B DUP4 DUP4 PUSH2 0x614 JUMP JUMPDEST SWAP2 POP DUP3 PUSH1 0x2 MUL DUP3 OR SWAP1 POP SWAP3 SWAP2 POP POP JUMP JUMPDEST PUSH2 0x654 DUP3 PUSH2 0x191 JUMP JUMPDEST PUSH8 0xFFFFFFFFFFFFFFFF DUP2 GT ISZERO PUSH2 0x66D JUMPI PUSH2 0x66C PUSH2 0x2DD JUMP JUMPDEST JUMPDEST PUSH2 0x677 DUP3 SLOAD PUSH2 0x475 JUMP JUMPDEST PUSH2 0x682 DUP3 DUP3 DUP6 PUSH2 0x5C2 JUMP JUMPDEST PUSH0 PUSH1 0x20 SWAP1 POP PUSH1 0x1F DUP4 GT PUSH1 0x1 DUP2 EQ PUSH2 0x6B3 JUMPI PUSH0 DUP5 ISZERO PUSH2 0x6A1 JUMPI DUP3 DUP8 ADD MLOAD SWAP1 POP JUMPDEST PUSH2 0x6AB DUP6 DUP3 PUSH2 0x630 JUMP JUMPDEST DUP7 SSTORE POP PUSH2 0x712 JUMP JUMPDEST PUSH1 0x1F NOT DUP5 AND PUSH2 0x6C1 DUP7 PUSH2 0x4A5 JUMP JUMPDEST PUSH0 JUMPDEST DUP3 DUP2 LT ISZERO PUSH2 0x6E8 JUMPI DUP5 DUP10 ADD MLOAD DUP3 SSTORE PUSH1 0x1 DUP3 ADD SWAP2 POP PUSH1 0x20 DUP6 ADD SWAP5 POP PUSH1 0x20 DUP2 ADD SWAP1 POP PUSH2 0x6C3 JUMP JUMPDEST DUP7 DUP4 LT ISZERO PUSH2 0x705 JUMPI DUP5 DUP10 ADD MLOAD PUSH2 0x701 PUSH1 0x1F DUP10 AND DUP3 PUSH2 0x614 JUMP JUMPDEST DUP4 SSTORE POP JUMPDEST PUSH1 0x1 PUSH1 0x2 DUP9 MUL ADD DUP9 SSTORE POP POP POP JUMPDEST POP POP POP POP POP POP JUMP INVALID LOG2 PUSH5 0x6970667358 0x22 SLT KECCAK256 LOG2 PUSH20 0x39088849832FAF6177BE8F4A10A0DE0FC46842CE LT 0xF7 0x28 0xE CALLDATACOPY 0xC1 0x4A 0xD 0xCD 0xD5 PUSH5 0x736F6C6343 STOP ADDMOD ISZERO STOP CALLER "
		},
		"gasEstimates": {
			"creation": {
				"codeDepositCost": "374400",
				"executionCost": "infinite",
				"totalCost": "infinite"
			},
			"external": {
				"getAge()": "2495",
				"name()": "infinite",
				"setAge(uint8)": "24673",
				"setName(string)": "infinite"
			},
			"internal": {
				"sumValues(uint256,uint256)": "infinite"
			}
		},
		"methodIdentifiers": {
			"getAge()": "967e6e65",
			"name()": "06fdde03",
			"setAge(uint8)": "5b0c8d70",
			"setName(string)": "c47f0027"
		}
	},
	"abi": [
		{
			"inputs": [],
			"stateMutability": "nonpayable",
			"type": "constructor"
		},
		{
			"inputs": [],
			"name": "getAge",
			"outputs": [
				{
					"internalType": "uint8",
					"name": "",
					"type": "uint8"
				}
			],
			"stateMutability": "view",
			"type": "function"
		},
		{
			"inputs": [],
			"name": "name",
			"outputs": [
				{
					"internalType": "string",
					"name": "",
					"type": "string"
				}
			],
			"stateMutability": "view",
			"type": "function"
		},
		{
			"inputs": [
				{
					"internalType": "uint8",
					"name": "_age",
					"type": "uint8"
				}
			],
			"name": "setAge",
			"outputs": [],
			"stateMutability": "nonpayable",
			"type": "function"
		},
		{
			"inputs": [
				{
					"internalType": "string",
					"name": "_name",
					"type": "string"
				}
			],
			"name": "setName",
			"outputs": [],
			"stateMutability": "nonpayable",
			"type": "function"
		}
	]
}